:100000000C9421010C9400000C9400000C9400004E
:100010000C9400000C9400000C9400000C94000060
:100020000C9400000C9434020C9400000C9400001A
:100030000C9400000C942A020C9400000C94000014
:100040000C9426020C9400000C94F3030C94000012
:100050000C9400000C9400000C9400000C94000020
:100060000C9400000C9400001027E80364000A00C0
:10007000010000100001100001000000000000005D
:1000800000000000001C0102150519007374617264
:1000900074210054696D65207468616F2074616318
:1000A000206D617920313A20253032753A25303281
:1000B000753A253032750D0A0054696D65206C69FA
:1000C00065752076616F206D617920313A20253089
:1000D00032753A253032753A2530327520446174D4
:1000E000653A20253032752F253032752F32302574
:1000F0003032750D0A0054696D65206C6965752094
:100100007261206D617920313A20253032753A25AF
:100110003032753A2530327520446174653A2025B5
:100120003032752F253032752F3230253032750D33
:100130000A0054696D65204C757520486F61206D0B
:10014000617920313A20253032753A253032753ABE
:10015000253032750D0A0054696D65207468616F31
:1001600020746163206D617920323A202530327528
:100170003A253032753A253032750D0A0054696DD2
:1001800065206C6965752076616F206D617920321C
:100190003A20253032753A253032753A253032759D
:1001A00020446174653A20253032752F2530327530
:1001B0002F3230253032750D0A0054696D65206C80
:1001C000696575207261206D617920323A20253091
:1001D00032753A253032753A2530327520446174D3
:1001E000653A20253032752F253032752F32302573
:1001F0003032750D0A0054696D65204C75752048C4
:100200006F61206D617920323A20253032753A25B0
:100210003032753A253032750D0A000001002D4E3E
:10022000414E00494E4600000A0005007A000700D2
:10023000C6038400070000038C000100CD031C02EC
:100240000000F894EE27EFBBF1E0F5BFE5BF8DE0CD
:10025000A2E0BB27ED938A95E9F780E098E0A0E063
:10026000B1E0ED930197E9F7E8E2F2E0859195912D
:10027000009761F0A591B59105901590BF01F0012F
:1002800005900D920197E1F7FB01F0CFE0E0EEBBA6
:10029000EFEFEDBFE8E0EEBFC0E0D3E00C94CA049E
:1002A000E0E8E0936100E0E0E0936100EEEFE4B9A4
:1002B000EFEFE5B9EBEFE7B9EFEFE8B9EFE1EAB956
:1002C000EFEFEBB9E0E0E4BDE3E0E5BDE3E5E6BD7B
:1002D000E0E0E7BDE8BDE0938000E3E0E09381006B
:1002E0000E94DE08E0E0E0938700E0938600E09360
:1002F0008900E0938800E0938B00E0938A00E0930C
:10030000B600E093B000E3E0E093B100E3E5E093F2
:10031000B200E0E0E093B300E093B400E1E0E093EA
:100320006E00E0936F00E0937000E0E0E0936900FE
:10033000EDBBE0936800E093C000E8E9E093C10002
:10034000E6E0E093C200E0E0E093C500E7E4E0937C
:10035000C400E0E0E093BC0078940895AA93E8819B
:10036000E295EF70AAE0EA02F001AE2FE881EF70AB
:10037000EA0F0C947607AA93A881B0E0EAE0F0E0D7
:100380000E941C0AE295E07F6E2FA881BB27EAE05D
:10039000F0E00E94210AE62B0C9476070E94E50803
:1003A000A881B981AC910E94EF08A1810E94EF0859
:1003B000A2810E94EF08A3810E94EF08A4810E94FD
:1003C000EF08A5810E94EF08A681D5DFAE2F0E941D
:1003D000DF090E94BA09A9C20E94E5080E94AB0980
:1003E000A1ED0E94DF090E94F708A881B981EC9372
:1003F0000E94F708A881B9811196EC930E94F70832
:10040000A881B9811296EC930E94F708A881B9815E
:100410001396EC930E94F708A881B9811496EC9387
:10042000A1E00E94C409EF71AE2F98DFA881B981C5
:100430001596EC93A0E00E94C409AE2F8FDFA8812F
:10044000B9811696EC930E94BA096FC2EA93E3E56C
:10045000E6BD0EC0EA93EFB7EA930E94DE08662479
:10046000E991EFBFE9911895EA93E3E5E093B200D3
:10047000E9911895AA93E091C000E072E1F30C9421
:100480007307BA93AA931A930A930E94FD08AA814C
:10049000BB810E9455071E2F00E0011748F4AA8176
:1004A000BB81EE27A00FBE1FAC91E4DF0F5FF5CF3D
:1004B000AAE0B0E00E94F7095A98198108812496B1
:1004C0000895AA930E944C0A0FEF1FEF30E0EC81D1
:1004D0003E17E8F4AD81BE81EC91F0E00E271F27B6
:1004E00028E0203069F000FF07C016950795E1E08D
:1004F000F0EA0E271F2702C0169507952150F1CF6D
:10050000ED81FE813196ED83FE833F5FE0CFF80100
:100510000E94530A27960895AA93A881A13079F5DD
:10052000E0917403E093AC03E0917303E093AB03B9
:10053000E0917203E093AA03E0917603E093AE03A7
:10054000E0917703E093AF03E0917803E093B00389
:10055000E0919003E093BA03E0918F03E093B90335
:10056000E0918E03E093B803E0919E03E093C10312
:10057000E0919D03E093C003E0919C0331C0A8810A
:10058000A23081F5E0918203E093AC03E091810316
:10059000E093AB03E0918003E093AA03E09184032E
:1005A000E093AE03E0918503E093AF03E09186030F
:1005B000E093B003E0919703E093BA03E0919603D0
:1005C000E093B903E0919503E093B803E091A503AC
:1005D000E093C103E091A403E093C003E091A3037F
:1005E000E093BF030C9476070E940209E0E0E093D9
:1005F0003C03E091AC03E0933D03E0E0E0933E0375
:10060000E091AB03E0933F03E0E0E0934003E0912F
:10061000AA03E0934103E0E0E0934203E091AE03DC
:10062000E0934303E0E0E0934403E091AF03E09301
:100630004503E0E0E0934603E091B003E093470315
:10064000E0E0E0934803E091B303E0934903E0E086
:10065000E0934A03E091B203E0934B03E0E0E093C0
:100660004C03E091B103E0934D03E0E0E0934E03CF
:10067000E091B503E0934F03E0E0E0935003E09195
:10068000B603E0935103E0E0E0935203E091B70337
:10069000E0935303E0E0E0935403E091BA03E09366
:1006A0005503E0E0E0935603E091B903E09357036C
:1006B000E0E0E0935803E091B803E0935903E0E0F1
:1006C000E0935A03E091C103E0935B03E0E0E09321
:1006D0005C03E091C103E0935D03E0E0E0935E031F
:1006E000E091BF03E0935F03E0E0E0936003E093F9
:1006F0006103E0936203E0936303E9E3F3E0FA93B9
:10070000EA93ABE20E940C09B0926403C0926503C5
:10071000EFEFE09366030E94FD0810E01E3220F424
:100720000E9411091F5FFACF57C00E940209ABE671
:10073000B3E052DEE0E0E0933C0330923D03E0930F
:100740003E03E0916D03E0933F03E0E0E09340035C
:10075000E0916C03E0934103E0E0E0934203E09119
:100760006B03E0934303E0E0E0934403E0916F0305
:10077000E0934503E0E0E0934603E0917003E093EB
:100780004703E0E0E0934803E0917103E0934903FD
:10079000E0E0E0934A03E0934B03E0934C03E093E3
:1007A0004D03E0934E03E0934F03E9E3F3E0FA9344
:1007B000EA93A7E10E940C09B0925003C092510342
:1007C000EFEFE09352030E94FD0810E01A3120F48D
:1007D0000E9411091F5FFACFA5E0B0E00E94F7095F
:1007E0005A98199108950A921A92FA926A937A93F2
:1007F0008A939A93AA93BA93EA93FA93EFB7EA93F8
:100800000E941809E091C600EC93E091C000E078E6
:1008100009F062C0A09107033A1619F0A03009F060
:100820005AC0E1E0E61511F450900803E6E0E61541
:1008300019F4E0E1E51509F007C080900A039090F3
:100840000C03A0900D030BC0E5E0E61519F4E3E0FE
:10085000E51509F004C080900A0390900C03EA2D7E
:10086000F0E03896A62DB0E0EA17FB0731F4E0E19E
:10087000E51519F4EAE0E81509F00FC00E941D091A
:100880000E94240931F40E941809EC2DEC93E03009
:1008900009F402C0EAE0EE2E1EC0E7E0E61551F4CE
:1008A000E3E0E51539F4E5E1E81519F0E9E2E815CA
:1008B00009F401C00FC00E941D090E94240931F4EF
:1008C0000E941809EC2DEC93E03009F402C0E3E03B
:1008D000EE2E01C0EE246394E0E0E093C000E991C5
:1008E000EFBFF991E991B991A99199918991799184
:1008F0006991F990199009901895AA93F999FECFEA
:10090000E981FA81F2BDE1BDE881E0BDE4E0EFBB41
:10091000F99A0C948307BA93AA93F999FECFE881C8
:10092000F981F2BDE1BDF89AE0B522960895A0E103
:10093000B0E0F1DFE13079F0E1E1F0E00E942C0974
:10094000E2E1F0E00E942C09E0E1F0E00E942C09D5
:10095000A6ECB3E023DDA1E1B0E0DDDF4E2EA2E1A5
:10096000B0E0D9DF3E2EE1E0E41511F4E7E40EC07B
:10097000E2E0E41511F4EFE209C0E3E0E41511F45C
:10098000E3E204C0E4E0E41519F4E1E1E093C4001B
:100990005A98089585DC0E94A6090E943109C7DF94
:1009A000E0E0E0937903E0937A03E0937B03A0E037
:1009B000B3E067DDEAE0EE1509F530900F03E09152
:1009C0001103E093C803E0911303E093C703E091A0
:1009D0001503E093C603E0911703E093CA03E09187
:1009E0001903E093CB03E0911B03E093CC03A6EC47
:1009F000B3E0D4DC0E94310998DE06C0E3E0EE15D6
:100A000021F40E943109F0DDEE244D9902C0F09BE3
:100A100001C094C0A2E7B3E0DFDCE0917B03E030EB
:100A200049F4E0917A03E03029F4E0917903E03071
:100A300009F464C0E0917903A0917203AE1740F00D
:100A4000A0917903E0917203EA1BE0939C030DC02F
:100A5000E0917203E45CA0917903EA1BE0939C03AC
:100A6000E0917303E150E0937303A0917303E0916D
:100A70007A03AE1740F0E0917303A0917A03EA1B6A
:100A8000E0939D030DC0E0917303E45CA0917A03B1
:100A9000EA1BE0939D03E0917403E150E09374033B
:100AA000A0917403E0917B03AE1740F0E0917403D2
:100AB000A0917B03EA1BE0939E030DC0E0917403B9
:100AC000E85EA0917B03EA1BE0939E03E09175032F
:100AD000E150E09375035A9AE3E9F0E0FA93EA9360
:100AE000E0919E030E943509E0919D030E94350923
:100AF000E0919C030E9435090E943B095A9AE9EB58
:100B0000F0E0FA93EA93E09174030E943509E091D2
:100B100073030E943509E09172030E943509E09148
:100B200076030E943509E09177030E943509E09130
:100B300078030E9435090E944309F09A4E9902C039
:100B4000F09901C089C0E0E0E0939E03E0939D032B
:100B5000E0939C03A9E7B3E03FDC5A9AE6EFF0E0AC
:100B6000FA93EA93E0917B030E943509E0917A03BE
:100B70000E943509E09179030E943509E0917D03D7
:100B80000E943509E0917E030E943509E0917F03C0
:100B90000E9435090E9443090E9449090E94510997
:100BA0000E945909E0917203A0917903AE1718F0E1
:100BB0000E9459090DC0E0917903E45CA091720391
:100BC000EA1BE0938E03E0917A03E150E0937A030D
:100BD000A0917A03E0917303AE1718F00E945109B7
:100BE0000DC0E0917A03E45CA0917303EA1BE093EB
:100BF0008F03E0917B03E150E0937B03A0917B03A3
:100C0000E0917403AE1718F00E9449090DC0E091FD
:100C10007B03E85EA0917403EA1BE0939003E091EC
:100C20007C03E150E0937C035A9AE2E3F1E0FA930B
:100C3000EA93E09190030E943509E0918F030E94AE
:100C40003509E0918E030E9435090E943B09F09816
:100C5000A8ECB0E00E94F7094F9902C0F19B01C0D7
:100C600094C0A0E8B3E0B8DBE0918903E03049F438
:100C7000E0918803E03029F4E0918703E03009F443
:100C800064C0E0918703A0918003AE1740F0A0916B
:100C90008703E0918003EA1BE093A3030DC0E0917A
:100CA0008003E45CA0918703EA1BE093A303E09137
:100CB0008103E150E0938103A0918103E0918803D7
:100CC000AE1740F0E0918103A0918803EA1BE09306
:100CD000A4030DC0E0918103E45CA0918803EA1BAA
:100CE000E093A403E0918203E150E0938203A0919A
:100CF0008203E0918903AE1740F0E0918203A09156
:100D00008903EA1BE093A5030DC0E0918203E85E2E
:100D1000A0918903EA1BE093A503E0918303E150CE
:100D2000E09383035A9AE7E5F1E0FA93EA93E091BE
:100D3000A5030E943509E091A4030E943509E091C2
:100D4000A3030E9435090E9461095A9AEDE7F1E078
:100D5000FA93EA93E09182030E943509E0918103BE
:100D60000E943509E09180030E943509E0918403D7
:100D70000E943509E09185030E943509E0918603C0
:100D80000E9435090E944309F19A189902C0F1990D
:100D900001C089C0E0E0E093A503E093A403E093E1
:100DA000A303A7E8B3E018DB5A9AEAEBF1E0FA9361
:100DB000EA93E09189030E943509E09188030E943B
:100DC0003509E09187030E943509E0918B030E9469
:100DD0003509E0918C030E943509E0918D030E9452
:100DE00035090E9443090E9469090E9471090E9405
:100DF0007909E0918003A0918703AE1718F00E9453
:100E000079090DC0E0918703E45CA0918003EA1B9F
:100E1000E0939503E0918803E150E0938803A0916B
:100E20008803E0918103AE1718F00E9471090DC08C
:100E3000E0918803E45CA0918103EA1BE0939603B0
:100E4000E0918903E150E0938903A0918903E09147
:100E50008203AE1718F00E9469090DC0E091890362
:100E6000E85EA0918203EA1BE0939703E0918A0376
:100E7000E150E0938A035A9AE6EFF1E0FA93EA939D
:100E8000E09197030E943509E09196030E9435098D
:100E9000E09195030E9435090E946109F198A8EC40
:100EA000B0E00E94F70986CDFFCFBA93AA93A9912B
:100EB000B991EE27FF276D91662311F03196FBCF94
:100EC0000895BA93AA93AA27BB27E991F9910590AF
:100ED000002011F01196FBCFFD010895AA93E09137
:100EE000C000E072E1F3E881E093C6002196089526
:100EF000BA93AA93AA81F2DFA881B981ED91FD91FD
:100F00003196FE93EE9323960895BA93AA9326976B
:100F10000E944A0A10E0AC85BD85E0E0F0E0ED9368
:100F2000FC93EA89FB893196EA8BFB8B3197E4913C
:100F30002E2FE03009F415C1E12FE03039F42532CD
:100F400011F411E002C00E9481090AC1E130A9F444
:100F5000253219F40E94810902C112E040E000E04C
:100F60002D3211F401E0FCC02B3211F44BE2F8C039
:100F7000203211F440E2F4C002C0E23039F450E013
:100F800013E0203311F40068EBC003C0E33009F034
:100F9000E7C0203310F02A3308F007C0AAE05A9FB8
:100FA000502DE22FE0535E0FDBC0E22FE33649F411
:100FB0000E948809E889F989A481AA930E948E0970
:100FC000CEC0E33741F40E9488090E9494090E9430
:100FD00055071E2F0AC0E03761F40E9488090E945D
:100FE00094090E9461071E2F086002600F7730E0AD
:100FF00034C0E43611F0E93611F4046002C0E5377C
:1010000031F4E8E6F0E0EE83FF8315E00CC0E8354C
:1010100011F4086003C0E83709F0A1C0E2E7F0E08E
:10102000EE83FF8314E002FF14C00E9488090E942F
:101030009E09AB85AA233AF4EA85FB850E94050A3E
:10104000EA87FB874DE2403011F01F5F01C00B7F44
:1010500004C00E9488090E949E0900FD11C0151756
:1010600078F407FF08C002FF04C00B7F242F115043
:1010700001C020E301C020E20E9481095150EFCF5E
:10108000312F01FF17C03030A1F003FF06C0EE8101
:10109000FF812591EE83FF8305C0AE81BF812D9135
:1010A000AE83BF830E948109503009F05150315006
:1010B000EACF4BC020E3EE81FF810E94410AE8871E
:1010C000F987EE81FF813296EE83FF83E885F9850B
:1010D000AA85BB85AE17BF0750F02F5FA885B985DD
:1010E000EA85FB85EA1BFB0BEA87FB87EFCF2A33F8
:1010F00028F003FF02C0295F01C0295D04FD1AC06A
:10110000213320F4A885B985119709F409C0531734
:1011100010F000FF01C013C020E207FF0BC020E366
:10112000006102FF07C00B7F4A930E948E09503076
:1011300009F051500E948109503009F0515031504E
:10114000A885B985129708F0B5CF00FF08C05030C8
:1011500031F05150E0E2EA930E948E09F8CF10E09E
:10116000E0CEAC85BD850E943D0A0E94510A64967E
:101170000895FF92F82E26971A930A93DE0114968B
:101180000E94010A8D01E0E0EC83ED83EE83EF83A2
:10119000DE0118960E94010A0E943D0AFA93EA9322
:1011A0001A930A93E8E7F7E0FA93EA93DE011896B8
:1011B000ACDE198108812896FF900895ECEBE0934E
:1011C0008500E0E8E09384000895BA93AA930E9412
:1011D000AB09A0ED0E94DF09A0E00C94DF090E949A
:1011E000BB01AE2F0E94DF09E881F9810895A1E0DB
:1011F0000E94C409AE2F0C94AE015A9AA5E0B0E04B
:101200000C94F7091A933092390350923A03E92D5E
:10121000EE0FE0933B0308950E946102BE2ECF2E95
:101220000895E12FF0E0E75CFC4FA0810C943A02B6
:10123000A62DB0E0A95FBC4F0895E7E0F3E0FA9374
:10124000EA93A62DA150E8CFE62DF0E03197E95FB3
:10125000FC4FA081BA160895FA93EA93A1E00C948A
:101260007D04A4E6B0E00C94F709FF2766277727F2
:101270000E94450A08958CE00E94B9082E965A985B
:10128000A1E00C948C0288E10E94B9086A965A98F1
:101290000895E0917B03A0917403EA1BE09390030F
:1012A0000895E0917A03A0917303EA1BE0938F0302
:1012B0000895A0917203E0917903EA1BE0938E03F5
:1012C00008958CE00E94B9082E965A98A2E00C94DA
:1012D0008C02E0918903A0918203EA1BE0939703BB
:1012E0000895E0918803A0918103EA1BE09396039F
:1012F0000895A0918003E0918703EA1BE093950392
:1013000008952A93AD85BE85EF85F88909950895DE
:10131000E889F9893497E88BF98B0895AD85BE8506
:10132000EF85F88909950895A889B98914960E94CE
:101330003D0AEE83FF83AE81BF810895A889B989F4
:1013400014960E943D0AEA87FB87089545984498C1
:101350003D9A3C9815C03C983D98EE270000349B80
:101360000895359B089504D03C9A02D03D9AE1E05F
:1013700062E107C03C9A3D9A03D03D98F9DF3C9862
:1013800065E26A95F1F7089578E03D98F1DF359BC5
:10139000FECFEEDF8894349908943D9AF1DFEE1F7A
:1013A0007A9599F77A2F772311F43C9801C03C9AEB
:1013B000DFDF3D98E5DF3D9ADBDF3C98D9CF78E071
:1013C000AA0F10F43C9801C03C9ADADF3D98D0DFB8
:1013D000359BFECFCDDF3D9A7A9591F73C98C8DFDB
:1013E0003D98CEDFE1E03499EE273D9AC1CF1096CB
:1013F00039F08DEC9AE00197F1F7A8951197C9F7AC
:1014000008950024AF0DB01D0895F195E195F040C9
:1014100008950024112490E1AA0FBB1F001C111C89
:101420000E1A1F0A18F40E0E1F1E01C0A1609A9515
:1014300099F7FD01D001089512D0EBDF0EF4E5DF3E
:101440000895E894B7FF04C0A095B09511966894EC
:10145000F7FDDBDFDEDFFD010EF4D7DF0895E89452
:10146000F7FF02C0D2DF6894B7FF06C0A095B09521
:10147000119600F8039400FA0895ED91FC911197EC
:1014800008950590F491E02D08957A936A93FA9364
:10149000EA9308955A934A933A932A931A930A9394
:1014A00008955D814C813B812A81198108810895CD
:00000001FF
