:0E0000000C9456000C9400000C9400000C941C
:10000E0000000C9400000C9400000C9400000C9462
:10001E0000000C9400000C948A010C9400000C94C7
:10002E0000000C9400000C945D010C9400000C94E4
:10003E0000000C9459010C9400000C94AB030C942A
:10004E0000000C9400000C9400000C9400000C9422
:10005E0000000C9400000C9400001027E8036400CC
:10006E000A00010000100001100001000000000055
:10007E00000000000000001C01021505190001001F
:10008E002D4E414E00494E4600000A0005007A00F2
:10009E000700E50384000100EC038C000000F894D7
:1000AE00EE27EFBBF1E0F5BFE5BF8DE0A2E0BB2789
:1000BE00ED938A95E9F780E098E0A0E0B1E0ED934A
:1000CE000197E9F7E8E9F0E085919591009761F0E5
:1000DE00A591B59105901590BF01F00105900D9277
:1000EE000197E1F7FB01F0CFE0E0EEBBEFEFEDBFE4
:1000FE00E8E0EEBFC0E0D3E00C948604E0E8E093C5
:10010E006100E0E0E0936100EEEFE4B9EFEFE5B9F6
:10011E00EBEFE7B9EFEFE8B9E7ECEAB9EFEFEBB9E0
:10012E00E0E0E4BDE3E0E5BDE3E5E6BDE0E0E7BD2C
:10013E00E8BDE0938000E3E0E09381000E94AF060B
:10014E00E0E0E0938700E0938600E0938900E0937F
:10015E008800E0938B00E0938A00E093B600E09372
:10016E00B000E3E0E093B100E3E5E093B200E0E03D
:10017E00E093B300E093B400E1E0E0936E00E0930F
:10018E006F00E0937000E0E0E0936900EDBBE09358
:10019E006800E093C000E8E9E093C100E6E0E09378
:1001AE00C200E0E0E093C500E7E4E093C400E0E0C5
:1001BE00E093BC0078940895AA93E881E295EF70DD
:1001CE00AAE0EA02F001AE2FE881EF70EA0F6FC1EC
:1001DE00AA93A881B0E0EAE0F0E00E94DC07E29585
:1001EE00E07F6E2FA881BB27EAE0F0E00E94E107D6
:1001FE00E62B5DC10E94B606A881B981AC910E9422
:10020E00C006A1810E94C006A2810E94C006A381E1
:10021E000E94C006A4810E94C006A5810E94C0064D
:10022E00A681D6DFAE2F0E94A3070E947E072EC3A3
:10023E000E94B6060E946F07A1ED0E94A3070E94BE
:10024E00C806A881B981EC930E94C806A881B9811D
:10025E001196EC930E94C806A881B9811296EC9370
:10026E000E94C806A881B9811396EC930E94C80615
:10027E00A881B9811496EC93A1E00E948807EF71D2
:10028E00AE2F9ADFA881B9811596EC93A0E00E945B
:10029E008807AE2F91DFA881B9811696EC930E9444
:1002AE007E07F4C2EA93E3E5E6BD31C0AA93EA9372
:1002BE00EFB7EA930E94AF0666244C9B02C0F09BF8
:1002CE0005C04C9902C0F09901C003C0E0E0ED15E5
:1002DE0008F001C0DA94189B02C0F19B05C0189972
:1002EE0002C0F19901C004C0A0916403A13008F4CA
:1002FE0005C0E0916403E150E0936403E991EFBF20
:10030E00E991A9911895EA93E3E5E093B200E9919A
:10031E001895AA93E091C000E072E1F3E881E093B2
:10032E00C600C5C0AA930E94FD070FEF1FEF30E075
:10033E00EC813E17E8F4AD81BE81EC91F0E00E2722
:10034E001F2728E0203069F000FF07C0169507959B
:10035E00E1E0F0EA0E271F2702C0169507952150FF
:10036E00F1CFED81FE813196ED83FE833F5FE0CFCD
:10037E00F8010E94020827960895AA93A881A13039
:10038E0009F049C0E0917003E093AF03E0916F0371
:10039E00E093AE03E0916E03E093AD03E091720340
:1003AE00E093B103E0917303E093B203E091740321
:1003BE00E093B303E0917703E093B603E091760305
:1003CE00E093B503E0917503E093B403E0917903F4
:1003DE00E093B803E0917A03E093B903E0917B03D5
:1003EE00E093BA03E0919303E093BD03E09192038F
:1003FE00E093BC03E0919103E093BB03E091A10372
:10040E00E093C403E091A003E093C303E0919F0344
:10041E00E093C2034CC0A881A23009F048C0E0911D
:10042E008503E093CB03E0918403E093CA03E0914C
:10043E008303E093C903E0918703E093CD03E0913A
:10044E008803E093CE03E0918903E093CF03E0911C
:10045E008C03E093D203E0918B03E093D103E09100
:10046E008A03E093D003E0918E03E093D403E091EE
:10047E008F03E093D503E0919003E093D603E091D0
:10048E009A03E093D903E0919903E093D803E091A6
:10049E009803E093D703E091A803E093E003E09183
:1004AE00A703E093DF03E091A603E093DE0321961A
:1004BE000895AA931A93A981A13009F064C00E94ED
:1004CE00CE06E091AF03E0933603E0E0E09337030E
:1004DE00E091AE030E94DA06E091AD030E94E006C1
:1004EE00E091B1030E94E606E091B2030E94EC0691
:1004FE00E091B3030E94F206E091B6030E94F80663
:10050E00E091B5030E94FE06E091B4030E94040739
:10051E00E091B803E0934803E0E0E0934903E091F3
:10052E00B903E0934A03E0E0E0934B03E091BA0392
:10053E00E0934C03E0E0E0934D03E091BD03E093C4
:10054E004E03E0E0E0934F03E091BC03E0935003D1
:10055E00E0E0E0935103E091BB03E0935203E0E04F
:10056E00E0935303E091C403E0935403E0E0E0937F
:10057E005503E091C403E0935603E0E0E093570384
:10058E00E091C20367C0A981A23009F07CC00E942D
:10059E00CE06E091CB03E0933603E0E0E093370321
:1005AE00E091CA030E94DA06E091C9030E94E006B8
:1005BE00E091CD030E94E606E091CE030E94EC0688
:1005CE00E091CF030E94F206E091D2030E94F8065A
:1005DE00E091D1030E94FE06E091D0030E94040731
:1005EE00E091D403E0934803E0E0E0934903E09107
:1005FE00D503E0934A03E0E0E0934B03E091D6038A
:10060E00E0934C03E0E0E0934D03E091D903E093D7
:10061E004E03E0E0E0934F03E091D803E0935003E4
:10062E00E0E0E0935103E091D703E0935203E0E062
:10063E00E0935303E091E003E0935403E0E0E09392
:10064E005503E091E003E0935603E0E0E093570397
:10065E00E091DE03E0935803E0E0E0935903E0936A
:10066E005A03E0935B03E0935C03E2E3F3E0FA9357
:10067E00EA93ABE20E940A07B0925D03C0925E035A
:10068E00EFEFE0935F030E940F071E3220F40E94EB
:10069E0016071F5FFACFAAE0B0E00E94BB075A9878
:1006AE001881F4C01A9330923203E3E0E0933303DF
:1006BE00E92DEE0FE0933403A7E6B3E0B9DDE0E0F9
:1006CE00E093350330923603E0933703E0916903EC
:1006DE000E94DA06E09168030E94E006E09167034B
:1006EE000E94E606E0916B030E94EC06E0916C031B
:1006FE000E94F206E0916D030E94F806E0E00E946F
:10070E00FE06E0E00E940407E0E0E0934803E2E327
:10071E00F3E0FA93EA93A7E10E940A07B092490325
:10072E00C0924A03EFEFE0934B030E940F071A317A
:10073E0020F40E9416071F5FFACFAAE0B0E00E94D5
:10074E00BB075A98199108950A921A92FA926A93CF
:10075E007A938A939A93AA93BA93EA93FA93EFB7FA
:10076E00EA930E941D07E091C600EC93E091C00051
:10077E00E07809F062C0A09100033A1619F0A0309B
:10078E0009F05AC0E1E0E61511F450900103E6E0DD
:10079E00E61519F4E0E1E51509F007C080900303B2
:1007AE0090900503A09006030BC0E5E0E61519F442
:1007BE00E3E0E51509F004C0809003039090050373
:1007CE00EA2DF0E03896A62DB0E0EA17FB0731F4DB
:1007DE00E0E1E51519F4EAE0E81509F00FC00E9412
:1007EE0022070E94290731F40E941D07EC2DEC937D
:1007FE00E03009F402C0EAE0EE2E1EC0E7E0E61596
:10080E0051F4E3E0E51539F4E5E1E81519F0E9E214
:10081E00E81509F401C00FC00E9422070E942907A3
:10082E0031F40E941D07EC2DEC93E03009F402C068
:10083E00E3E0EE2E01C0EE246394E0E0E093C0000E
:10084E00E991EFBFF991E991B991A99199918991A6
:10085E0079916991F990199009901895AA93F9993F
:10086E00FECFE981FA81F2BDE1BDE881E0BDE4E0B1
:10087E00EFBBF99A23960895BA93AA93F999FECFEE
:10088E00E881F981F2BDE1BDF89AE0B522960895AE
:10089E00A0E1B0E0F1DFE13079F0E1E1F0E00E94BB
:1008AE003107E2E1F0E00E943107E0E1F0E00E9462
:1008BE003107A5EEB3E09EDCA1E1B0E0DDDF4E2E08
:1008CE00A2E1B0E0D9DF3E2EE1E0E41511F4E7E459
:1008DE000EC0E2E0E41511F4EFE209C0E3E0E41526
:1008EE0011F4E3E204C0E4E0E41519F4E1E1E0936D
:1008FE00C4005A98E4E1DE2EE09364030895FEDB13
:10090E000E946A070E943607C3DFE0E0E09375039A
:10091E00E0937603E0937703EAE0EE1541F530902D
:10092E000803E0910A03E093E703E0910C03E093E0
:10093E00E603E0910E03E093E503E0911003E093EC
:10094E00E903E0911203E093EA03E0911403E093CC
:10095E00EB03A5EEB3E04EDC0E943607A3DEEE24D9
:10096E00E2E1F0E0FA93EA93A32D78DF10C0E3E022
:10097E00EE1569F40E943607E5E1E81511F4A1E0E1
:10098E0004C0E9E2E81511F4A2E093DDEE244C9BDD
:10099E0004C0F09902C0DD2009F06AC0F09AE0E0D0
:1009AE00E0936503AEE6B3E043DCE0917E03E03016
:1009BE0049F4E0917D03E03029F4E0917C03E030CE
:1009CE0009F451C0E0917C03A0916E03AE1740F084
:1009DE00A0917C03E0916E03EA1BE0939F030DC090
:1009EE00E0916E03E45CA0917C03EA1BE0939F030D
:1009FE00E0916F03E150E0936F03A0916F03E091DC
:100A0E007D03AE1740F0E0916F03A0917D03EA1BCA
:100A1E00E093A0030DC0E0916F03E45CA0917D0311
:100A2E00EA1BE093A003E0917003E150E0937003A2
:100A3E00A0917003E0917E03AE1740F0E091700339
:100A4E00A0917E03EA1BE093A1030DC0E091700319
:100A5E00E85EA0917E03EA1BE093A103E09171038F
:100A6E00E150E0937103AEE6B3E0E2DBE4E1DE2EAB
:100A7E004C9908C0F09B06C0DD2021F4A0916503BF
:100A8E00A03009F003C0E1E0E09365034C9908C083
:100A9E00F09B06C0DD2021F4A0916503A13009F082
:100AAE0064C0E2E0E0936503E0917703E0937E0398
:100ABE00E0917603E0937D03E0917503E0937C0370
:100ACE00A5E7B3E0B5DB0E943A070E9442070E94F9
:100ADE004A07E0916E03A0917503AE1718F00E94BD
:100AEE004A070DC0E0917503E45CA0916E03EA1B0A
:100AFE00E0939103E0917603E150E0937603A091A9
:100B0E007603E0916F03AE1718F00E9442070DC0F6
:100B1E00E0917603E45CA0916F03EA1BE0939203ED
:100B2E00E0917703E150E0937703A0917703E09192
:100B3E007003AE1718F00E943A070DC0E0917703CC
:100B4E00E85EA0917003EA1BE0939303E0917803B3
:100B5E00E150E0937803A5E7B3E06ADBF098E4E1B7
:100B6E00DE2E0E943607A1E008DC189B06C0F19924
:100B7E0004C0A0916403A03009F06BC0F19AE0E0CC
:100B8E00E0936603A3E8B3E053DBE0918C03E0301F
:100B9E0049F4E0918B03E03029F4E0918A03E030D0
:100BAE0009F451C0E0918A03A0918303AE1740F07F
:100BBE00A0918A03E0918303EA1BE093A6030DC084
:100BCE00E0918303E45CA0918A03EA1BE093A60301
:100BDE00E0918403E150E0938403A0918403E091BB
:100BEE008B03AE1740F0E0918403A0918B03EA1BB8
:100BFE00E093A7030DC0E0918403E45CA0918B0306
:100C0E00EA1BE093A703E0918503E150E09385038F
:100C1E00A0918503E0918C03AE1740F0E09185031F
:100C2E00A0918C03EA1BE093A8030DC0E09185030D
:100C3E00E85EA0918C03EA1BE093A803E091860383
:100C4E00E150E0938603A3E8B3E0F2DAE4E1E09347
:100C5E00640318990AC0F19B08C0A0916403A030E8
:100C6E0021F4A0916603A03009F003C0E1E0E09307
:100C7E00660318990AC0F19B08C0A0916403A030C6
:100C8E0021F4A0916603A13009F060C0E2E0E09388
:100C9E006603E0E0E093A803E093A703E093A603C6
:100CAE00AAE8B3E0C5DA0E9452070E945A070E94D2
:100CBE006207E0918303A0918A03AE1718F00E9499
:100CCE0062070DC0E0918A03E45CA0918303EA1BE6
:100CDE00E0939803E0918B03E150E0938B03A09196
:100CEE008B03E0918403AE1718F00E945A070DC0D3
:100CFE00E0918B03E45CA0918403EA1BE0939903DB
:100D0E00E0918C03E150E0938C03A0918C03E09171
:100D1E008503AE1718F00E9452070DC0E0918C03A8
:100D2E00E85EA0918503EA1BE0939A03E0918D03A0
:100D3E00E150E0938D03AAE8B3E07ADAF198E4E1AA
:100D4E00E09364030E943607A2E017DBE5CDFFCFE8
:100D5E00ECEBE0938500E0E8E09384000895BA930D
:100D6E00AA930E946F07A0ED0E94A307A0E00C9427
:100D7E00A3070E94EF00AE2F0E94A307E881F9811E
:100D8E000895A1E00E948807AE2F0C94E3003092E4
:100D9E00320350923303E92DEE0FE0933403E0E07B
:100DAE00E09335030895E0933803E0E0E0933903D0
:100DBE000895E0933A03E0E0E0933B030895E09357
:100DCE003C03E0E0E0933D030895E0933E03E0E052
:100DDE00E0933F030895E0934003E0E0E093410386
:100DEE000895E0934203E0E0E09343030895E09317
:100DFE004403E0E0E09345030895E0934603E0E00A
:100E0E00E093470308950E949901BE2ECF2E0895B8
:100E1E005A9AAAE0B0E00E94BB0710E00895E12FB5
:100E2E00F0E0EE5CFC4FA0810C949001A62DB0E09A
:100E3E00A050BD4F0895E0E0F3E0FA93EA93A62D9B
:100E4E00A150E1CFE62DF0E03197E050FD4FA081AB
:100E5E00BA160895FA93EA93A1E00C943504A4E629
:100E6E00B0E00C94BB07E0917703A0917003EA1BEE
:100E7E00E09393030895E0917603A0916F03EA1B2C
:100E8E00E09392030895A0916E03E0917503EA1B1F
:100E9E00E09391030895E0918C03A0918503EA1BE2
:100EAE00E0939A030895E0918B03A0918403EA1BCB
:100EBE00E09399030895A0918303E0918A03EA1BBE
:100ECE00E09398030895459844983D9A3C9815C030
:100EDE003C983D98EE270000349B0895359B08956D
:100EEE0004D03C9A02D03D9AE1E062E107C03C9A00
:100EFE003D9A03D03D98F9DF3C9865E26A95F1F78B
:100F0E00089578E03D98F1DF359BFECFEEDF8894B3
:100F1E00349908943D9AF1DFEE1F7A9599F77A2F5E
:100F2E00772311F43C9801C03C9ADFDF3D98E5DF52
:100F3E003D9ADBDF3C98D9CF78E0AA0F10F43C98AD
:100F4E0001C03C9ADADF3D98D0DF359BFECFCDDF76
:100F5E003D9A7A9591F73C98C8DF3D98CEDFE1E057
:100F6E003499EE273D9AC1CF109639F08DEC9AE068
:100F7E000197F1F7A8951197C9F70895F195E195A5
:100F8E00F04008950024112490E1AA0FBB1F001C0D
:100F9E00111C0E1A1F0A18F40E0E1F1E01C0A1609E
:100FAE009A9599F7FD01D001089512D0EBDF0EF45A
:100FBE00E5DF0895E894B7FF04C0A095B0951196AB
:100FCE006894F7FDDBDFDEDFFD010EF4D7DF089559
:100FDE00E894F7FF02C0D2DF6894B7FF06C0A09571
:100FEE00B095119600F8039400FA08953A932A9357
:100FFE001A930A9308953B812A81198108810895D5
:00000001FF
