:060000000C9456000C9464
:1000060000000C9400000C9400000C9400000C946A
:1000160000000C9400000C9400000C9400000C945A
:100026008A010C9400000C9400000C9400000C94BF
:100036005D010C9400000C9400000C9459010C9482
:1000460000000C94AB030C9400000C9400000C947C
:1000560000000C9400000C9400000C9400000C941A
:1000660000001027E80364000A00010000100001E8
:100076001000010000000000000000000000001C4D
:1000860001021505190001002D4E414E00494E464C
:1000960000000A0005007A000700E303840001005F
:1000A600EA038C000000F894EE27EFBBF1E0F5BF01
:1000B600E5BF8DE0A2E0BB27ED938A95E9F780E0E6
:1000C60098E0A0E0B1E0ED930197E9F7E8E9F0E008
:1000D60085919591009761F0A591B5910590159040
:1000E600BF01F00105900D920197E1F7FB01F0CFFA
:1000F600E0E0EEBBEFEFEDBFE8E0EEBFC0E0D3E03F
:100106000C947A04E0E8E0936100E0E0E09361009B
:10011600EEEFE4B9EFEFE5B9EBEFE7B9EFEFE8B9EA
:10012600EFE1EAB9EFEFEBB9E0E0E4BDE3E0E5BD0E
:10013600E3E5E6BDE0E0E7BDE8BDE0938000E3E08F
:10014600E09381000E946806E0E0E0938700E09378
:100156008600E0938900E0938800E0938B00E093AB
:100166008A00E093B600E093B000E3E0E093B100CC
:10017600E3E5E093B200E0E0E093B300E093B4007F
:10018600E1E0E0936E00E0936F00E0937000E0E042
:10019600E0936900EDBBE0936800E093C000E8E9F6
:1001A600E093C100E6E0E093C200E0E0E093C50022
:1001B600E7E4E093C400E0E0E093BC00789408959F
:1001C600AA93E881E295EF70AAE0EA02F001AE2F69
:1001D600E881EF70EA0F6FC1AA93A881B0E0EAE068
:1001E600F0E00E949007E295E07F6E2FA881BB2782
:1001F600EAE0F0E00E949507E62B5DC10E946F06DB
:10020600A881B981AC910E947906A1810E947906E4
:10021600A2810E947906A3810E947906A4810E9488
:100226007906A5810E947906A681D6DFAE2F0E94A7
:1002360057070E9432072EC30E946F060E942307AB
:10024600A1ED0E9457070E948106A881B981EC930F
:100256000E948106A881B9811196EC930E948106BD
:10026600A881B9811296EC930E948106A881B98172
:100276001396EC930E948106A881B9811496EC939B
:10028600A1E00E943C07EF71AE2F9ADFA881B981E9
:100296001596EC93A0E00E943C07AE2F91DFA88153
:1002A600B9811696EC930E943207F4C2EA93E3E50D
:1002B600E6BD31C0AA93EA93EFB7EA930E946806B7
:1002C60066244E9B02C0F09B05C04E9902C0F09971
:1002D60001C003C0E0E0ED1508F001C0DA94189BF8
:1002E60002C0F19B05C0189902C0F19901C004C073
:1002F600A0916403A13008F405C0E0916403E150C5
:10030600E0936403E991EFBFE991A9911895EA9307
:10031600E3E5E093B200E9911895AA93E091C00055
:10032600E072E1F3E881E093C600C5C0AA930E949B
:10033600B1070FEF1FEF30E0EC813E17E8F4AD8117
:10034600BE81EC91F0E00E271F2728E0203069F0EF
:1003560000FF07C016950795E1E0F0EA0E271F2774
:1003660002C0169507952150F1CFED81FE81319699
:10037600ED83FE833F5FE0CFF8010E94B607279624
:100386000895AA93A881A13009F049C0E0916E03AF
:10039600E093AD03E0916D03E093AC03E0916C0351
:1003A600E093AB03E0917003E093AF03E091710338
:1003B600E093B003E0917203E093B103E09175031B
:1003C600E093B403E0917403E093B303E091730305
:1003D600E093B203E0917703E093B603E0917803EC
:1003E600E093B703E0917903E093B803E0919103BA
:1003F600E093BB03E0919003E093BA03E0918F038F
:10040600E093B903E0919F03E093C203E0919E035A
:10041600E093C103E0919D03E093C0034CC0A88123
:10042600A23009F048C0E0918303E093C903E0914C
:100436008203E093C803E0918103E093C703E09150
:100446008503E093CB03E0918603E093CC03E09130
:100456008703E093CD03E0918A03E093D003E09114
:100466008903E093CF03E0918803E093CE03E09104
:100476008C03E093D203E0918D03E093D303E091E4
:100486008E03E093D403E0919803E093D703E091C1
:100496009703E093D603E0919603E093D503E091AA
:1004A600A603E093DE03E091A503E093DD03E0916C
:1004B600A403E093DC0321960895AA931A93A981D5
:1004C600A13009F064C00E948706E091AD03E09375
:1004D6003603E0E0E0933703E091AC030E94930615
:1004E600E091AB030E949906E091AF030E949F063C
:1004F600E091B0030E94A506E091B1030E94AB060D
:10050600E091B4030E94B106E091B3030E94B706DE
:10051600E091B2030E94BD06E091B603E093480362
:10052600E0E0E0934903E091B703E0934A03E0E09B
:10053600E0934B03E091B803E0934C03E0E0E093D3
:100546004D03E091BB03E0934E03E0E0E0934F03DD
:10055600E091BA03E0935003E0E0E0935103E091A9
:10056600B903E0935203E0E0E0935303E091C20342
:10057600E0935403E0E0E0935503E091C203E09377
:100586005603E0E0E0935703E091C00367C0A981FA
:10059600A23009F07CC00E948706E091C903E0936F
:1005A6003603E0E0E0933703E091C8030E94930628
:1005B600E091C7030E949906E091CB030E949F0633
:1005C600E091CC030E94A506E091CD030E94AB0604
:1005D600E091D0030E94B106E091CF030E94B706D6
:1005E600E091CE030E94BD06E091D203E09348035A
:1005F600E0E0E0934903E091D303E0934A03E0E0AF
:10060600E0934B03E091D403E0934C03E0E0E093E6
:100616004D03E091D703E0934E03E0E0E0934F03F0
:10062600E091D603E0935003E0E0E0935103E091BC
:10063600D503E0935203E0E0E0935303E091DE0339
:10064600E0935403E0E0E0935503E091DE03E0938A
:100656005603E0E0E0935703E091DC03E093580390
:10066600E0E0E0935903E0935A03E0935B03E093E1
:100676005C03E2E3F3E0FA93EA93ABE20E94C3067B
:10068600B0925D03C0925E03EFEFE0935F030E94BA
:10069600C8061E3220F40E94CF061F5FFACFAAE0DA
:1006A600B0E00E946F075A981881F4C01A933092EE
:1006B6003203E3E0E0933303E92DEE0FE0933403D6
:1006C600A5E6B3E0B9DDE0E0E0933503309236030A
:1006D600E0933703E09167030E949306E091660377
:1006E6000E949906E09165030E949F06E0916903C6
:1006F6000E94A506E0916A030E94AB06E0916B0397
:100706000E94B106E0E00E94B706E0E00E94BD0646
:10071600E0E0E0934803E2E3F3E0FA93EA93A7E12B
:100726000E94C306B0924903C0924A03EFEFE093DA
:100736004B030E94C8061A3120F40E94CF061F5FA1
:10074600FACFAAE0B0E00E946F075A98199108956F
:100756000A921A92FA926A937A938A939A93AA932E
:10076600BA93EA93FA93EFB7EA930E94D606E0911A
:10077600C600EC93E091C000E07809F062C0A09159
:1007860000033A1619F0A03009F05AC0E1E0E61568
:1007960011F450900103E6E0E61519F4E0E1E515E1
:1007A60009F007C08090030390900503A09006030C
:1007B6000BC0E5E0E61519F4E3E0E51509F004C021
:1007C6008090030390900503EA2DF0E03896A62D5D
:1007D600B0E0EA17FB0731F4E0E1E51519F4EAE0C9
:1007E600E81509F00FC00E94DB060E94E20631F40C
:1007F6000E94D606EC2DEC93E03009F402C0EAE044
:10080600EE2E1EC0E7E0E61551F4E3E0E51539F4F7
:10081600E5E1E81519F0E9E2E81509F401C00FC0B1
:100826000E94DB060E94E20631F40E94D606EC2DF9
:10083600EC93E03009F402C0E3E0EE2E01C0EE24B2
:100846006394E0E0E093C000E991EFBFF991E9918C
:10085600B991A9919991899179916991F990199094
:1008660009901895AA93F999FECFE981FA81F2BD0C
:10087600E1BDE881E0BDE4E0EFBBF99A2396089577
:10088600BA93AA93F999FECFE881F981F2BDE1BD49
:10089600F89AE0B522960895A0E1B0E0F1DFE130E4
:1008A60049F0E0E1F0E0FA93EA93A1E0DBDFA3EEA2
:1008B600B3E0A4DCE1E04E2E3E2EE41511F4E7E4AD
:1008C6000EC0E2E0E41511F4EFE209C0E3E0E4153E
:1008D60011F4E3E204C0E4E0E41519F4E1E1E09385
:1008E600C4005A98E4E1DE2EE093640308950ADC1E
:1008F6000E941E070E94EA06CFDFE0E0E093730342
:10090600E0937403E0937503EAE0EE15F9F4E091E1
:100916000A03E093E503E0910C03E093E403E0911E
:100926000E03E093E303E0911003E093E703E09105
:100936001203E093E803E0911403E093E903A3EEC6
:10094600B3E05CDC0E94EA06B1DE0FC0E3E0EE1520
:1009560069F40E94EA06E5E1E81511F4A1E004C095
:10096600E9E2E81511F4A2E0A8DDEE244E9B04C0EE
:10097600F09902C0DD2009F067C0F09AACE6B3E05A
:100986005BDCE0917C03E03049F4E0917B03E030EE
:1009960029F4E0917A03E03009F451C0E0917A033A
:1009A600A0916C03AE1740F0A0917A03E0916C031E
:1009B600EA1BE0939D030DC0E0916C03E45CA091FB
:1009C6007A03EA1BE0939D03E0916D03E150E09307
:1009D6006D03A0916D03E0917B03AE1740F0E091AB
:1009E6006D03A0917B03EA1BE0939E030DC0E0918B
:1009F6006D03E45CA0917B03EA1BE0939E03E09108
:100A06006E03E150E0936E03A0916E03E0917C03C8
:100A1600AE1740F0E0916E03A0917C03EA1BE093D1
:100A26009F030DC0E0916E03E85EA0917C03EA1B74
:100A3600E0939F03E0916F03E150E0936F03ACE610
:100A4600B3E0FADBE4E1DE2E4E9904C0F09B02C06F
:100A5600DD2009F061C0E0917503E0937C03E0912D
:100A66007403E0937B03E0917303E0937A03A3E7B7
:100A7600B3E0E2DB0E94EE060E94F6060E94FE0646
:100A8600E0916C03A0917303AE1718F00E94FE0666
:100A96000DC0E0917303E45CA0916C03EA1BE09344
:100AA6008F03E0917403E150E0937403A091740303
:100AB600E0916D03AE1718F00E94F6060DC0E091A6
:100AC6007403E45CA0916D03EA1BE0939003E0914C
:100AD6007503E150E0937503A0917503E0916E03F1
:100AE600AE1718F00E94EE060DC0E0917503E85EA1
:100AF600A0916E03EA1BE0939103E0917603E15027
:100B0600E0937603A3E7B3E097DBF098E4E1DE2E0B
:100B16000E94EA06A1E035DC189B06C0F19904C0E4
:100B2600A0916403A03009F068C0F19AA1E8B3E08F
:100B360083DBE0918A03E03049F4E0918903E030F9
:100B460029F4E0918803E03009F451C0E09188036C
:100B5600A0918103AE1740F0A0918803E091810334
:100B6600EA1BE093A4030DC0E0918103E45CA0912D
:100B76008803EA1BE093A403E0918203E150E0932B
:100B86008203A0918203E0918903AE1740F0E091C1
:100B96008203A0918903EA1BE093A5030DC0E091AF
:100BA6008203E45CA0918903EA1BE093A503E0912C
:100BB6008303E150E0938303A0918303E0918A03CA
:100BC600AE1740F0E0918303A0918A03EA1BE093FD
:100BD600A6030DC0E0918303E85EA0918A03EA1B99
:100BE600E093A603E0918403E150E0938403A1E837
:100BF600B3E022DBE4E1E0936403189906C0F19BBD
:100C060004C0A0916403A03009F05DC0E0E0E09369
:100C1600A603E093A503E093A403A8E8B3E00CDBE6
:100C26000E9406070E940E070E941607E0918103A4
:100C3600A0918803AE1718F00E9416070DC0E09128
:100C46008803E45CA0918103EA1BE0939603E0919C
:100C56008903E150E0938903A0918903E09182031F
:100C6600AE1718F00E940E070DC0E0918903E45CF0
:100C7600A0918203EA1BE0939703E0918A03E15077
:100C8600E0938A03A0918A03E0918303AE1718F0DC
:100C96000E9406070DC0E0918A03E85EA0918303D7
:100CA600EA1BE0939803E0918B03E150E0938B03FA
:100CB600A8E8B3E0C1DAF198E4E1E09364030E94A6
:100CC600EA06A2E05EDB20CEFFCFECEBE0938500E8
:100CD600E0E8E09384000895BA93AA930E9423075C
:100CE600A0ED0E945707A0E00C9457070E94EF0062
:100CF600AE2F0E945707E881F9810895A1E00E946E
:100D06003C07AE2F0C94E30030923203509233032B
:100D1600E92DEE0FE0933403E0E0E0933503089508
:100D2600E0933803E0E0E09339030895E0933A0353
:100D3600E0E0E0933B030895E0933C03E0E0E093BA
:100D46003D030895E0933E03E0E0E0933F030895FA
:100D5600E0934003E0E0E09341030895E09342030B
:100D6600E0E0E09343030895E0934403E0E0E0937A
:100D760045030895E0934603E0E0E09347030895B2
:100D86000E949901BE2ECF2E08955A9AAAE0B0E08D
:100D96000E946F0710E00895E12FF0E0EE5CFC4F33
:100DA600A0810C949001A62DB0E0A050BD4F0895EF
:100DB600E0E0F3E0FA93EA93A62DA150E1CFE62D09
:100DC600F0E03197E050FD4FA081BA160895A4E6F1
:100DD600B0E00C946F07E0917503A0916E03EA1BD7
:100DE600E09391030895E0917403A0916D03EA1BCB
:100DF600E09390030895A0916C03E0917303EA1BBE
:100E0600E0938F030895E0918A03A0918303EA1B80
:100E1600E09398030895E0918903A0918203EA1B69
:100E2600E09397030895A0918103E0918803EA1B5C
:100E3600E09396030895459844983D9A3C9815C0CA
:100E46003C983D98EE270000349B0895359B089505
:100E560004D03C9A02D03D9AE1E062E107C03C9A98
:100E66003D9A03D03D98F9DF3C9865E26A95F1F723
:100E7600089578E03D98F1DF359BFECFEEDF88944C
:100E8600349908943D9AF1DFEE1F7A9599F77A2FF7
:100E9600772311F43C9801C03C9ADFDF3D98E5DFEB
:100EA6003D9ADBDF3C98D9CF78E0AA0F10F43C9846
:100EB60001C03C9ADADF3D98D0DF359BFECFCDDF0F
:100EC6003D9A7A9591F73C98C8DF3D98CEDFE1E0F0
:100ED6003499EE273D9AC1CF109639F08DEC9AE001
:100EE6000197F1F7A8951197C9F70895F195E1953E
:100EF600F04008950024112490E1AA0FBB1F001CA6
:100F0600111C0E1A1F0A18F40E0E1F1E01C0A16036
:100F16009A9599F7FD01D001089512D0EBDF0EF4F2
:100F2600E5DF0895E894B7FF04C0A095B095119643
:100F36006894F7FDDBDFDEDFFD010EF4D7DF0895F1
:100F4600E894F7FF02C0D2DF6894B7FF06C0A09509
:100F5600B095119600F8039400FA08953A932A93EF
:100F66001A930A9308953B812A811981088108956D
:00000001FF
